{
  "_format": "hh-sol-artifact-1",
  "contractName": "NFTMarketplace",
  "sourceName": "contracts/NFTMarketplace.sol",
  "abi": [
    {
      "inputs": [],
      "stateMutability": "nonpayable",
      "type": "constructor"
    },
    {
      "anonymous": false,
      "inputs": [
        {
          "indexed": true,
          "internalType": "address",
          "name": "owner",
          "type": "address"
        },
        {
          "indexed": true,
          "internalType": "address",
          "name": "approved",
          "type": "address"
        },
        {
          "indexed": true,
          "internalType": "uint256",
          "name": "tokenId",
          "type": "uint256"
        }
      ],
      "name": "Approval",
      "type": "event"
    },
    {
      "anonymous": false,
      "inputs": [
        {
          "indexed": true,
          "internalType": "address",
          "name": "owner",
          "type": "address"
        },
        {
          "indexed": true,
          "internalType": "address",
          "name": "operator",
          "type": "address"
        },
        {
          "indexed": false,
          "internalType": "bool",
          "name": "approved",
          "type": "bool"
        }
      ],
      "name": "ApprovalForAll",
      "type": "event"
    },
    {
      "anonymous": false,
      "inputs": [
        {
          "indexed": true,
          "internalType": "address",
          "name": "from",
          "type": "address"
        },
        {
          "indexed": true,
          "internalType": "address",
          "name": "to",
          "type": "address"
        },
        {
          "indexed": true,
          "internalType": "uint256",
          "name": "tokenId",
          "type": "uint256"
        }
      ],
      "name": "Transfer",
      "type": "event"
    },
    {
      "inputs": [
        {
          "internalType": "address",
          "name": "to",
          "type": "address"
        },
        {
          "internalType": "uint256",
          "name": "tokenId",
          "type": "uint256"
        }
      ],
      "name": "approve",
      "outputs": [],
      "stateMutability": "nonpayable",
      "type": "function"
    },
    {
      "inputs": [
        {
          "internalType": "address",
          "name": "owner",
          "type": "address"
        }
      ],
      "name": "balanceOf",
      "outputs": [
        {
          "internalType": "uint256",
          "name": "",
          "type": "uint256"
        }
      ],
      "stateMutability": "view",
      "type": "function"
    },
    {
      "inputs": [
        {
          "internalType": "string",
          "name": "tokenURI",
          "type": "string"
        },
        {
          "internalType": "uint256",
          "name": "price",
          "type": "uint256"
        }
      ],
      "name": "createToken",
      "outputs": [
        {
          "internalType": "uint256",
          "name": "",
          "type": "uint256"
        }
      ],
      "stateMutability": "payable",
      "type": "function"
    },
    {
      "inputs": [
        {
          "internalType": "uint256",
          "name": "tokenId",
          "type": "uint256"
        }
      ],
      "name": "executeSale",
      "outputs": [],
      "stateMutability": "payable",
      "type": "function"
    },
    {
      "inputs": [],
      "name": "getAllNFTs",
      "outputs": [
        {
          "components": [
            {
              "internalType": "uint256",
              "name": "tokenId",
              "type": "uint256"
            },
            {
              "internalType": "address payable",
              "name": "owner",
              "type": "address"
            },
            {
              "internalType": "address payable",
              "name": "seller",
              "type": "address"
            },
            {
              "internalType": "uint256",
              "name": "price",
              "type": "uint256"
            },
            {
              "internalType": "bool",
              "name": "currentlyListed",
              "type": "bool"
            }
          ],
          "internalType": "struct NFTMarketplace.ListedToken[]",
          "name": "",
          "type": "tuple[]"
        }
      ],
      "stateMutability": "view",
      "type": "function"
    },
    {
      "inputs": [
        {
          "internalType": "uint256",
          "name": "tokenId",
          "type": "uint256"
        }
      ],
      "name": "getApproved",
      "outputs": [
        {
          "internalType": "address",
          "name": "",
          "type": "address"
        }
      ],
      "stateMutability": "view",
      "type": "function"
    },
    {
      "inputs": [],
      "name": "getCurrentToken",
      "outputs": [
        {
          "internalType": "uint256",
          "name": "",
          "type": "uint256"
        }
      ],
      "stateMutability": "view",
      "type": "function"
    },
    {
      "inputs": [],
      "name": "getLatestIdToListedToken",
      "outputs": [
        {
          "components": [
            {
              "internalType": "uint256",
              "name": "tokenId",
              "type": "uint256"
            },
            {
              "internalType": "address payable",
              "name": "owner",
              "type": "address"
            },
            {
              "internalType": "address payable",
              "name": "seller",
              "type": "address"
            },
            {
              "internalType": "uint256",
              "name": "price",
              "type": "uint256"
            },
            {
              "internalType": "bool",
              "name": "currentlyListed",
              "type": "bool"
            }
          ],
          "internalType": "struct NFTMarketplace.ListedToken",
          "name": "",
          "type": "tuple"
        }
      ],
      "stateMutability": "view",
      "type": "function"
    },
    {
      "inputs": [],
      "name": "getListPrice",
      "outputs": [
        {
          "internalType": "uint256",
          "name": "",
          "type": "uint256"
        }
      ],
      "stateMutability": "view",
      "type": "function"
    },
    {
      "inputs": [
        {
          "internalType": "uint256",
          "name": "tokenId",
          "type": "uint256"
        }
      ],
      "name": "getListedTokenForId",
      "outputs": [
        {
          "components": [
            {
              "internalType": "uint256",
              "name": "tokenId",
              "type": "uint256"
            },
            {
              "internalType": "address payable",
              "name": "owner",
              "type": "address"
            },
            {
              "internalType": "address payable",
              "name": "seller",
              "type": "address"
            },
            {
              "internalType": "uint256",
              "name": "price",
              "type": "uint256"
            },
            {
              "internalType": "bool",
              "name": "currentlyListed",
              "type": "bool"
            }
          ],
          "internalType": "struct NFTMarketplace.ListedToken",
          "name": "",
          "type": "tuple"
        }
      ],
      "stateMutability": "view",
      "type": "function"
    },
    {
      "inputs": [],
      "name": "getMyNFTs",
      "outputs": [
        {
          "components": [
            {
              "internalType": "uint256",
              "name": "tokenId",
              "type": "uint256"
            },
            {
              "internalType": "address payable",
              "name": "owner",
              "type": "address"
            },
            {
              "internalType": "address payable",
              "name": "seller",
              "type": "address"
            },
            {
              "internalType": "uint256",
              "name": "price",
              "type": "uint256"
            },
            {
              "internalType": "bool",
              "name": "currentlyListed",
              "type": "bool"
            }
          ],
          "internalType": "struct NFTMarketplace.ListedToken[]",
          "name": "",
          "type": "tuple[]"
        }
      ],
      "stateMutability": "view",
      "type": "function"
    },
    {
      "inputs": [
        {
          "internalType": "address",
          "name": "owner",
          "type": "address"
        },
        {
          "internalType": "address",
          "name": "operator",
          "type": "address"
        }
      ],
      "name": "isApprovedForAll",
      "outputs": [
        {
          "internalType": "bool",
          "name": "",
          "type": "bool"
        }
      ],
      "stateMutability": "view",
      "type": "function"
    },
    {
      "inputs": [],
      "name": "listPrice",
      "outputs": [
        {
          "internalType": "uint256",
          "name": "",
          "type": "uint256"
        }
      ],
      "stateMutability": "view",
      "type": "function"
    },
    {
      "inputs": [],
      "name": "name",
      "outputs": [
        {
          "internalType": "string",
          "name": "",
          "type": "string"
        }
      ],
      "stateMutability": "view",
      "type": "function"
    },
    {
      "inputs": [],
      "name": "owner",
      "outputs": [
        {
          "internalType": "address payable",
          "name": "",
          "type": "address"
        }
      ],
      "stateMutability": "view",
      "type": "function"
    },
    {
      "inputs": [
        {
          "internalType": "uint256",
          "name": "tokenId",
          "type": "uint256"
        }
      ],
      "name": "ownerOf",
      "outputs": [
        {
          "internalType": "address",
          "name": "",
          "type": "address"
        }
      ],
      "stateMutability": "view",
      "type": "function"
    },
    {
      "inputs": [
        {
          "internalType": "address",
          "name": "from",
          "type": "address"
        },
        {
          "internalType": "address",
          "name": "to",
          "type": "address"
        },
        {
          "internalType": "uint256",
          "name": "tokenId",
          "type": "uint256"
        }
      ],
      "name": "safeTransferFrom",
      "outputs": [],
      "stateMutability": "nonpayable",
      "type": "function"
    },
    {
      "inputs": [
        {
          "internalType": "address",
          "name": "from",
          "type": "address"
        },
        {
          "internalType": "address",
          "name": "to",
          "type": "address"
        },
        {
          "internalType": "uint256",
          "name": "tokenId",
          "type": "uint256"
        },
        {
          "internalType": "bytes",
          "name": "data",
          "type": "bytes"
        }
      ],
      "name": "safeTransferFrom",
      "outputs": [],
      "stateMutability": "nonpayable",
      "type": "function"
    },
    {
      "inputs": [
        {
          "internalType": "address",
          "name": "operator",
          "type": "address"
        },
        {
          "internalType": "bool",
          "name": "approved",
          "type": "bool"
        }
      ],
      "name": "setApprovalForAll",
      "outputs": [],
      "stateMutability": "nonpayable",
      "type": "function"
    },
    {
      "inputs": [
        {
          "internalType": "bytes4",
          "name": "interfaceId",
          "type": "bytes4"
        }
      ],
      "name": "supportsInterface",
      "outputs": [
        {
          "internalType": "bool",
          "name": "",
          "type": "bool"
        }
      ],
      "stateMutability": "view",
      "type": "function"
    },
    {
      "inputs": [],
      "name": "symbol",
      "outputs": [
        {
          "internalType": "string",
          "name": "",
          "type": "string"
        }
      ],
      "stateMutability": "view",
      "type": "function"
    },
    {
      "inputs": [
        {
          "internalType": "uint256",
          "name": "tokenId",
          "type": "uint256"
        }
      ],
      "name": "tokenURI",
      "outputs": [
        {
          "internalType": "string",
          "name": "",
          "type": "string"
        }
      ],
      "stateMutability": "view",
      "type": "function"
    },
    {
      "inputs": [
        {
          "internalType": "address",
          "name": "from",
          "type": "address"
        },
        {
          "internalType": "address",
          "name": "to",
          "type": "address"
        },
        {
          "internalType": "uint256",
          "name": "tokenId",
          "type": "uint256"
        }
      ],
      "name": "transferFrom",
      "outputs": [],
      "stateMutability": "nonpayable",
      "type": "function"
    },
    {
      "inputs": [
        {
          "internalType": "uint256",
          "name": "_listPrice",
          "type": "uint256"
        }
      ],
      "name": "updateListPrice",
      "outputs": [],
      "stateMutability": "payable",
      "type": "function"
    }
  ],
  "bytecode": "0x60806040526001600a553480156200001657600080fd5b506040518060400160405280600e81526020017f4e46544d61726b6574706c6163650000000000000000000000000000000000008152506040518060400160405280600481526020017f4e46544d0000000000000000000000000000000000000000000000000000000081525081600090816200009491906200036a565b508060019081620000a691906200036a565b50505033600760006101000a81548173ffffffffffffffffffffffffffffffffffffffff021916908373ffffffffffffffffffffffffffffffffffffffff16021790555062000451565b600081519050919050565b7f4e487b7100000000000000000000000000000000000000000000000000000000600052604160045260246000fd5b7f4e487b7100000000000000000000000000000000000000000000000000000000600052602260045260246000fd5b600060028204905060018216806200017257607f821691505b6020821081036200018857620001876200012a565b5b50919050565b60008190508160005260206000209050919050565b60006020601f8301049050919050565b600082821b905092915050565b600060088302620001f27fffffffffffffffffffffffffffffffffffffffffffffffffffffffffffffffff82620001b3565b620001fe8683620001b3565b95508019841693508086168417925050509392505050565b6000819050919050565b6000819050919050565b60006200024b620002456200023f8462000216565b62000220565b62000216565b9050919050565b6000819050919050565b62000267836200022a565b6200027f620002768262000252565b848454620001c0565b825550505050565b600090565b6200029662000287565b620002a38184846200025c565b505050565b5b81811015620002cb57620002bf6000826200028c565b600181019050620002a9565b5050565b601f8211156200031a57620002e4816200018e565b620002ef84620001a3565b81016020851015620002ff578190505b620003176200030e85620001a3565b830182620002a8565b50505b505050565b600082821c905092915050565b60006200033f600019846008026200031f565b1980831691505092915050565b60006200035a83836200032c565b9150826002028217905092915050565b6200037582620000f0565b67ffffffffffffffff811115620003915762000390620000fb565b5b6200039d825462000159565b620003aa828285620002cf565b600060209050601f831160018114620003e25760008415620003cd578287015190505b620003d985826200034c565b86555062000449565b601f198416620003f2866200018e565b60005b828110156200041c57848901518255600182019150602085019450602081019050620003f5565b868310156200043c578489015162000438601f8916826200032c565b8355505b6001600288020188555050505b505050505050565b613e8c80620004616000396000f3fe60806040526004361061014b5760003560e01c80638da5cb5b116100b6578063c322579c1161006f578063c322579c1461049c578063c87b56dd146104b8578063d1a88ae5146104f5578063e0391b0914610520578063e985e9c51461054b578063ef2d1746146105885761014b565b80638da5cb5b1461039b5780638e264590146103c657806395d89b41146104035780639b1225c41461042e578063a22cb4651461044a578063b88d4fde146104735761014b565b8063629cb2e411610108578063629cb2e4146102705780636352211e1461029b57806368f1945f146102d85780636eb588d91461030357806370a082311461032e57806372b3b6201461036b5761014b565b806301ffc9a71461015057806306fdde031461018d578063081812fc146101b8578063095ea7b3146101f557806323b872dd1461021e57806342842e0e14610247575b600080fd5b34801561015c57600080fd5b506101776004803603810190610172919061279e565b6105b3565b60405161018491906127e6565b60405180910390f35b34801561019957600080fd5b506101a2610695565b6040516101af9190612891565b60405180910390f35b3480156101c457600080fd5b506101df60048036038101906101da91906128e9565b610727565b6040516101ec9190612957565b60405180910390f35b34801561020157600080fd5b5061021c6004803603810190610217919061299e565b61076d565b005b34801561022a57600080fd5b50610245600480360381019061024091906129de565b610884565b005b34801561025357600080fd5b5061026e600480360381019061026991906129de565b6108e4565b005b34801561027c57600080fd5b50610285610904565b6040516102929190612b87565b60405180910390f35b3480156102a757600080fd5b506102c260048036038101906102bd91906128e9565b610ce5565b6040516102cf9190612957565b60405180910390f35b3480156102e457600080fd5b506102ed610d96565b6040516102fa9190612bb8565b60405180910390f35b34801561030f57600080fd5b50610318610da0565b6040516103259190612bb8565b60405180910390f35b34801561033a57600080fd5b5061035560048036038101906103509190612bd3565b610da6565b6040516103629190612bb8565b60405180910390f35b61038560048036038101906103809190612d35565b610e5d565b6040516103929190612bb8565b60405180910390f35b3480156103a757600080fd5b506103b0610e9f565b6040516103bd9190612da0565b60405180910390f35b3480156103d257600080fd5b506103ed60048036038101906103e891906128e9565b610ec5565b6040516103fa9190612e23565b60405180910390f35b34801561040f57600080fd5b50610418610fcd565b6040516104259190612891565b60405180910390f35b610448600480360381019061044391906128e9565b61105f565b005b34801561045657600080fd5b50610471600480360381019061046c9190612e6a565b611251565b005b34801561047f57600080fd5b5061049a60048036038101906104959190612f4b565b611267565b005b6104b660048036038101906104b191906128e9565b6112c9565b005b3480156104c457600080fd5b506104df60048036038101906104da91906128e9565b611363565b6040516104ec9190612891565b60405180910390f35b34801561050157600080fd5b5061050a611475565b6040516105179190612e23565b60405180910390f35b34801561052c57600080fd5b5061053561158a565b6040516105429190612b87565b60405180910390f35b34801561055757600080fd5b50610572600480360381019061056d9190612fce565b61175c565b60405161057f91906127e6565b60405180910390f35b34801561059457600080fd5b5061059d6117f0565b6040516105aa9190612bb8565b60405180910390f35b60007f80ac58cd000000000000000000000000000000000000000000000000000000007bffffffffffffffffffffffffffffffffffffffffffffffffffffffff1916827bffffffffffffffffffffffffffffffffffffffffffffffffffffffff1916148061067e57507f5b5e139f000000000000000000000000000000000000000000000000000000007bffffffffffffffffffffffffffffffffffffffffffffffffffffffff1916827bffffffffffffffffffffffffffffffffffffffffffffffffffffffff1916145b8061068e575061068d82611801565b5b9050919050565b6060600080546106a49061303d565b80601f01602080910402602001604051908101604052809291908181526020018280546106d09061303d565b801561071d5780601f106106f25761010080835404028352916020019161071d565b820191906000526020600020905b81548152906001019060200180831161070057829003601f168201915b5050505050905090565b60006107328261186b565b6004600083815260200190815260200160002060009054906101000a900473ffffffffffffffffffffffffffffffffffffffff169050919050565b600061077882610ce5565b90508073ffffffffffffffffffffffffffffffffffffffff168373ffffffffffffffffffffffffffffffffffffffff16036107e8576040517f08c379a00000000000000000000000000000000000000000000000000000000081526004016107df906130e0565b60405180910390fd5b8073ffffffffffffffffffffffffffffffffffffffff166108076118b6565b73ffffffffffffffffffffffffffffffffffffffff1614806108365750610835816108306118b6565b61175c565b5b610875576040517f08c379a000000000000000000000000000000000000000000000000000000000815260040161086c90613172565b60405180910390fd5b61087f83836118be565b505050565b61089561088f6118b6565b82611977565b6108d4576040517f08c379a00000000000000000000000000000000000000000000000000000000081526004016108cb90613204565b60405180910390fd5b6108df838383611a0c565b505050565b6108ff83838360405180602001604052806000815250611267565b505050565b606060006109126008611c72565b9050600080600080600090505b84811015610a38573373ffffffffffffffffffffffffffffffffffffffff16600b600060018461094f9190613253565b815260200190815260200160002060010160009054906101000a900473ffffffffffffffffffffffffffffffffffffffff1673ffffffffffffffffffffffffffffffffffffffff161480610a1057503373ffffffffffffffffffffffffffffffffffffffff16600b60006001846109c69190613253565b815260200190815260200160002060020160009054906101000a900473ffffffffffffffffffffffffffffffffffffffff1673ffffffffffffffffffffffffffffffffffffffff16145b15610a2557600184610a229190613253565b93505b8080610a3090613287565b91505061091f565b5060008367ffffffffffffffff811115610a5557610a54612c0a565b5b604051908082528060200260200182016040528015610a8e57816020015b610a7b6126d5565b815260200190600190039081610a735790505b50905060005b85811015610cd9573373ffffffffffffffffffffffffffffffffffffffff16600b6000600184610ac49190613253565b815260200190815260200160002060010160009054906101000a900473ffffffffffffffffffffffffffffffffffffffff1673ffffffffffffffffffffffffffffffffffffffff161480610b8557503373ffffffffffffffffffffffffffffffffffffffff16600b6000600184610b3b9190613253565b815260200190815260200160002060020160009054906101000a900473ffffffffffffffffffffffffffffffffffffffff1673ffffffffffffffffffffffffffffffffffffffff16145b15610cc657600181610b979190613253565b92506000600b60008581526020019081526020016000209050806040518060a0016040529081600082015481526020016001820160009054906101000a900473ffffffffffffffffffffffffffffffffffffffff1673ffffffffffffffffffffffffffffffffffffffff1673ffffffffffffffffffffffffffffffffffffffff1681526020016002820160009054906101000a900473ffffffffffffffffffffffffffffffffffffffff1673ffffffffffffffffffffffffffffffffffffffff1673ffffffffffffffffffffffffffffffffffffffff168152602001600382015481526020016004820160009054906101000a900460ff161515151581525050838681518110610caa57610ca96132cf565b5b6020026020010181905250600185610cc29190613253565b9450505b8080610cd190613287565b915050610a94565b50809550505050505090565b6000806002600084815260200190815260200160002060009054906101000a900473ffffffffffffffffffffffffffffffffffffffff169050600073ffffffffffffffffffffffffffffffffffffffff168173ffffffffffffffffffffffffffffffffffffffff1603610d8d576040517f08c379a0000000000000000000000000000000000000000000000000000000008152600401610d849061334a565b60405180910390fd5b80915050919050565b6000600a54905090565b600a5481565b60008073ffffffffffffffffffffffffffffffffffffffff168273ffffffffffffffffffffffffffffffffffffffff1603610e16576040517f08c379a0000000000000000000000000000000000000000000000000000000008152600401610e0d906133dc565b60405180910390fd5b600360008373ffffffffffffffffffffffffffffffffffffffff1673ffffffffffffffffffffffffffffffffffffffff168152602001908152602001600020549050919050565b6000610e696008611c80565b6000610e756008611c72565b9050610e813382611c96565b610e8b8185611cb4565b610e958184611d21565b8091505092915050565b600760009054906101000a900473ffffffffffffffffffffffffffffffffffffffff1681565b610ecd6126d5565b600b60008381526020019081526020016000206040518060a0016040529081600082015481526020016001820160009054906101000a900473ffffffffffffffffffffffffffffffffffffffff1673ffffffffffffffffffffffffffffffffffffffff1673ffffffffffffffffffffffffffffffffffffffff1681526020016002820160009054906101000a900473ffffffffffffffffffffffffffffffffffffffff1673ffffffffffffffffffffffffffffffffffffffff1673ffffffffffffffffffffffffffffffffffffffff168152602001600382015481526020016004820160009054906101000a900460ff1615151515815250509050919050565b606060018054610fdc9061303d565b80601f01602080910402602001604051908101604052809291908181526020018280546110089061303d565b80156110555780601f1061102a57610100808354040283529160200191611055565b820191906000526020600020905b81548152906001019060200180831161103857829003601f168201915b5050505050905090565b6000600b60008381526020019081526020016000206003015490506000600b600084815260200190815260200160002060020160009054906101000a900473ffffffffffffffffffffffffffffffffffffffff1690508134146110f7576040517f08c379a00000000000000000000000000000000000000000000000000000000081526004016110ee9061346e565b60405180910390fd5b6001600b600085815260200190815260200160002060040160006101000a81548160ff02191690831515021790555033600b600085815260200190815260200160002060020160006101000a81548173ffffffffffffffffffffffffffffffffffffffff021916908373ffffffffffffffffffffffffffffffffffffffff1602179055506111856009611c80565b611190303385611a0c565b61119a308461076d565b600760009054906101000a900473ffffffffffffffffffffffffffffffffffffffff1673ffffffffffffffffffffffffffffffffffffffff166108fc600a549081150290604051600060405180830381858888f19350505050158015611204573d6000803e3d6000fd5b508073ffffffffffffffffffffffffffffffffffffffff166108fc349081150290604051600060405180830381858888f1935050505015801561124b573d6000803e3d6000fd5b50505050565b61126361125c6118b6565b8383611eda565b5050565b6112786112726118b6565b83611977565b6112b7576040517f08c379a00000000000000000000000000000000000000000000000000000000081526004016112ae90613204565b60405180910390fd5b6112c384848484612046565b50505050565b3373ffffffffffffffffffffffffffffffffffffffff16600760009054906101000a900473ffffffffffffffffffffffffffffffffffffffff1673ffffffffffffffffffffffffffffffffffffffff1614611359576040517f08c379a000000000000000000000000000000000000000000000000000000000815260040161135090613500565b60405180910390fd5b80600a8190555050565b606061136e8261186b565b600060066000848152602001908152602001600020805461138e9061303d565b80601f01602080910402602001604051908101604052809291908181526020018280546113ba9061303d565b80156114075780601f106113dc57610100808354040283529160200191611407565b820191906000526020600020905b8154815290600101906020018083116113ea57829003601f168201915b5050505050905060006114186120a2565b9050600081510361142d578192505050611470565b60008251111561146257808260405160200161144a92919061355c565b60405160208183030381529060405292505050611470565b61146b846120b9565b925050505b919050565b61147d6126d5565b60006114896008611c72565b9050600b60008281526020019081526020016000206040518060a0016040529081600082015481526020016001820160009054906101000a900473ffffffffffffffffffffffffffffffffffffffff1673ffffffffffffffffffffffffffffffffffffffff1673ffffffffffffffffffffffffffffffffffffffff1681526020016002820160009054906101000a900473ffffffffffffffffffffffffffffffffffffffff1673ffffffffffffffffffffffffffffffffffffffff1673ffffffffffffffffffffffffffffffffffffffff168152602001600382015481526020016004820160009054906101000a900460ff16151515158152505091505090565b606060006115986008611c72565b905060008167ffffffffffffffff8111156115b6576115b5612c0a565b5b6040519080825280602002602001820160405280156115ef57816020015b6115dc6126d5565b8152602001906001900390816115d45790505b50905060008080600090505b84811015611751576001816116109190613253565b91506000600b60008481526020019081526020016000209050806040518060a0016040529081600082015481526020016001820160009054906101000a900473ffffffffffffffffffffffffffffffffffffffff1673ffffffffffffffffffffffffffffffffffffffff1673ffffffffffffffffffffffffffffffffffffffff1681526020016002820160009054906101000a900473ffffffffffffffffffffffffffffffffffffffff1673ffffffffffffffffffffffffffffffffffffffff1673ffffffffffffffffffffffffffffffffffffffff168152602001600382015481526020016004820160009054906101000a900460ff161515151581525050858581518110611723576117226132cf565b5b602002602001018190525060018461173b9190613253565b935050808061174990613287565b9150506115fb565b508294505050505090565b6000600560008473ffffffffffffffffffffffffffffffffffffffff1673ffffffffffffffffffffffffffffffffffffffff16815260200190815260200160002060008373ffffffffffffffffffffffffffffffffffffffff1673ffffffffffffffffffffffffffffffffffffffff16815260200190815260200160002060009054906101000a900460ff16905092915050565b60006117fc6008611c72565b905090565b60007f01ffc9a7000000000000000000000000000000000000000000000000000000007bffffffffffffffffffffffffffffffffffffffffffffffffffffffff1916827bffffffffffffffffffffffffffffffffffffffffffffffffffffffff1916149050919050565b61187481612121565b6118b3576040517f08c379a00000000000000000000000000000000000000000000000000000000081526004016118aa9061334a565b60405180910390fd5b50565b600033905090565b816004600083815260200190815260200160002060006101000a81548173ffffffffffffffffffffffffffffffffffffffff021916908373ffffffffffffffffffffffffffffffffffffffff160217905550808273ffffffffffffffffffffffffffffffffffffffff1661193183610ce5565b73ffffffffffffffffffffffffffffffffffffffff167f8c5be1e5ebec7d5bd14f71427d1e84f3dd0314c0f7b2291e5b200ac8c7c3b92560405160405180910390a45050565b60008061198383610ce5565b90508073ffffffffffffffffffffffffffffffffffffffff168473ffffffffffffffffffffffffffffffffffffffff1614806119c557506119c4818561175c565b5b80611a0357508373ffffffffffffffffffffffffffffffffffffffff166119eb84610727565b73ffffffffffffffffffffffffffffffffffffffff16145b91505092915050565b8273ffffffffffffffffffffffffffffffffffffffff16611a2c82610ce5565b73ffffffffffffffffffffffffffffffffffffffff1614611a82576040517f08c379a0000000000000000000000000000000000000000000000000000000008152600401611a79906135f2565b60405180910390fd5b600073ffffffffffffffffffffffffffffffffffffffff168273ffffffffffffffffffffffffffffffffffffffff1603611af1576040517f08c379a0000000000000000000000000000000000000000000000000000000008152600401611ae890613684565b60405180910390fd5b611afc83838361218d565b611b076000826118be565b6001600360008573ffffffffffffffffffffffffffffffffffffffff1673ffffffffffffffffffffffffffffffffffffffff1681526020019081526020016000206000828254611b5791906136a4565b925050819055506001600360008473ffffffffffffffffffffffffffffffffffffffff1673ffffffffffffffffffffffffffffffffffffffff1681526020019081526020016000206000828254611bae9190613253565b92505081905550816002600083815260200190815260200160002060006101000a81548173ffffffffffffffffffffffffffffffffffffffff021916908373ffffffffffffffffffffffffffffffffffffffff160217905550808273ffffffffffffffffffffffffffffffffffffffff168473ffffffffffffffffffffffffffffffffffffffff167fddf252ad1be2c89b69c2b068fc378daa952ba7f163c4a11628f55a4df523b3ef60405160405180910390a4611c6d838383612192565b505050565b600081600001549050919050565b6001816000016000828254019250508190555050565b611cb0828260405180602001604052806000815250612197565b5050565b611cbd82612121565b611cfc576040517f08c379a0000000000000000000000000000000000000000000000000000000008152600401611cf39061374a565b60405180910390fd5b80600660008481526020019081526020016000209081611d1c9190613916565b505050565b600a543414611d65576040517f08c379a0000000000000000000000000000000000000000000000000000000008152600401611d5c90613a5a565b60405180910390fd5b60008111611da8576040517f08c379a0000000000000000000000000000000000000000000000000000000008152600401611d9f90613aec565b60405180910390fd5b6040518060a001604052808381526020013073ffffffffffffffffffffffffffffffffffffffff1681526020013373ffffffffffffffffffffffffffffffffffffffff16815260200182815260200160011515815250600b60008481526020019081526020016000206000820151816000015560208201518160010160006101000a81548173ffffffffffffffffffffffffffffffffffffffff021916908373ffffffffffffffffffffffffffffffffffffffff16021790555060408201518160020160006101000a81548173ffffffffffffffffffffffffffffffffffffffff021916908373ffffffffffffffffffffffffffffffffffffffff1602179055506060820151816003015560808201518160040160006101000a81548160ff0219169083151502179055509050505050565b8173ffffffffffffffffffffffffffffffffffffffff168373ffffffffffffffffffffffffffffffffffffffff1603611f48576040517f08c379a0000000000000000000000000000000000000000000000000000000008152600401611f3f90613b58565b60405180910390fd5b80600560008573ffffffffffffffffffffffffffffffffffffffff1673ffffffffffffffffffffffffffffffffffffffff16815260200190815260200160002060008473ffffffffffffffffffffffffffffffffffffffff1673ffffffffffffffffffffffffffffffffffffffff16815260200190815260200160002060006101000a81548160ff0219169083151502179055508173ffffffffffffffffffffffffffffffffffffffff168373ffffffffffffffffffffffffffffffffffffffff167f17307eab39ab6107e8899845ad3d59bd9653f200f220920489ca2b5937696c318360405161203991906127e6565b60405180910390a3505050565b612051848484611a0c565b61205d848484846121f2565b61209c576040517f08c379a000000000000000000000000000000000000000000000000000000000815260040161209390613bea565b60405180910390fd5b50505050565b606060405180602001604052806000815250905090565b60606120c48261186b565b60006120ce6120a2565b905060008151116120ee5760405180602001604052806000815250612119565b806120f884612379565b60405160200161210992919061355c565b6040516020818303038152906040525b915050919050565b60008073ffffffffffffffffffffffffffffffffffffffff166002600084815260200190815260200160002060009054906101000a900473ffffffffffffffffffffffffffffffffffffffff1673ffffffffffffffffffffffffffffffffffffffff1614159050919050565b505050565b505050565b6121a183836124d9565b6121ae60008484846121f2565b6121ed576040517f08c379a00000000000000000000000000000000000000000000000000000000081526004016121e490613bea565b60405180910390fd5b505050565b60006122138473ffffffffffffffffffffffffffffffffffffffff166126b2565b1561236c578373ffffffffffffffffffffffffffffffffffffffff1663150b7a0261223c6118b6565b8786866040518563ffffffff1660e01b815260040161225e9493929190613c5f565b6020604051808303816000875af192505050801561229a57506040513d601f19601f820116820180604052508101906122979190613cc0565b60015b61231c573d80600081146122ca576040519150601f19603f3d011682016040523d82523d6000602084013e6122cf565b606091505b506000815103612314576040517f08c379a000000000000000000000000000000000000000000000000000000000815260040161230b90613bea565b60405180910390fd5b805181602001fd5b63150b7a0260e01b7bffffffffffffffffffffffffffffffffffffffffffffffffffffffff1916817bffffffffffffffffffffffffffffffffffffffffffffffffffffffff191614915050612371565b600190505b949350505050565b6060600082036123c0576040518060400160405280600181526020017f300000000000000000000000000000000000000000000000000000000000000081525090506124d4565b600082905060005b600082146123f25780806123db90613287565b915050600a826123eb9190613d1c565b91506123c8565b60008167ffffffffffffffff81111561240e5761240d612c0a565b5b6040519080825280601f01601f1916602001820160405280156124405781602001600182028036833780820191505090505b5090505b600085146124cd5760018261245991906136a4565b9150600a856124689190613d4d565b60306124749190613253565b60f81b81838151811061248a576124896132cf565b5b60200101907effffffffffffffffffffffffffffffffffffffffffffffffffffffffffffff1916908160001a905350600a856124c69190613d1c565b9450612444565b8093505050505b919050565b600073ffffffffffffffffffffffffffffffffffffffff168273ffffffffffffffffffffffffffffffffffffffff1603612548576040517f08c379a000000000000000000000000000000000000000000000000000000000815260040161253f90613dca565b60405180910390fd5b61255181612121565b15612591576040517f08c379a000000000000000000000000000000000000000000000000000000000815260040161258890613e36565b60405180910390fd5b61259d6000838361218d565b6001600360008473ffffffffffffffffffffffffffffffffffffffff1673ffffffffffffffffffffffffffffffffffffffff16815260200190815260200160002060008282546125ed9190613253565b92505081905550816002600083815260200190815260200160002060006101000a81548173ffffffffffffffffffffffffffffffffffffffff021916908373ffffffffffffffffffffffffffffffffffffffff160217905550808273ffffffffffffffffffffffffffffffffffffffff16600073ffffffffffffffffffffffffffffffffffffffff167fddf252ad1be2c89b69c2b068fc378daa952ba7f163c4a11628f55a4df523b3ef60405160405180910390a46126ae60008383612192565b5050565b6000808273ffffffffffffffffffffffffffffffffffffffff163b119050919050565b6040518060a0016040528060008152602001600073ffffffffffffffffffffffffffffffffffffffff168152602001600073ffffffffffffffffffffffffffffffffffffffff168152602001600081526020016000151581525090565b6000604051905090565b600080fd5b600080fd5b60007fffffffff0000000000000000000000000000000000000000000000000000000082169050919050565b61277b81612746565b811461278657600080fd5b50565b60008135905061279881612772565b92915050565b6000602082840312156127b4576127b361273c565b5b60006127c284828501612789565b91505092915050565b60008115159050919050565b6127e0816127cb565b82525050565b60006020820190506127fb60008301846127d7565b92915050565b600081519050919050565b600082825260208201905092915050565b60005b8381101561283b578082015181840152602081019050612820565b60008484015250505050565b6000601f19601f8301169050919050565b600061286382612801565b61286d818561280c565b935061287d81856020860161281d565b61288681612847565b840191505092915050565b600060208201905081810360008301526128ab8184612858565b905092915050565b6000819050919050565b6128c6816128b3565b81146128d157600080fd5b50565b6000813590506128e3816128bd565b92915050565b6000602082840312156128ff576128fe61273c565b5b600061290d848285016128d4565b91505092915050565b600073ffffffffffffffffffffffffffffffffffffffff82169050919050565b600061294182612916565b9050919050565b61295181612936565b82525050565b600060208201905061296c6000830184612948565b92915050565b61297b81612936565b811461298657600080fd5b50565b60008135905061299881612972565b92915050565b600080604083850312156129b5576129b461273c565b5b60006129c385828601612989565b92505060206129d4858286016128d4565b9150509250929050565b6000806000606084860312156129f7576129f661273c565b5b6000612a0586828701612989565b9350506020612a1686828701612989565b9250506040612a27868287016128d4565b9150509250925092565b600081519050919050565b600082825260208201905092915050565b6000819050602082019050919050565b612a66816128b3565b82525050565b6000612a7782612916565b9050919050565b612a8781612a6c565b82525050565b612a96816127cb565b82525050565b60a082016000820151612ab26000850182612a5d565b506020820151612ac56020850182612a7e565b506040820151612ad86040850182612a7e565b506060820151612aeb6060850182612a5d565b506080820151612afe6080850182612a8d565b50505050565b6000612b108383612a9c565b60a08301905092915050565b6000602082019050919050565b6000612b3482612a31565b612b3e8185612a3c565b9350612b4983612a4d565b8060005b83811015612b7a578151612b618882612b04565b9750612b6c83612b1c565b925050600181019050612b4d565b5085935050505092915050565b60006020820190508181036000830152612ba18184612b29565b905092915050565b612bb2816128b3565b82525050565b6000602082019050612bcd6000830184612ba9565b92915050565b600060208284031215612be957612be861273c565b5b6000612bf784828501612989565b91505092915050565b600080fd5b600080fd5b7f4e487b7100000000000000000000000000000000000000000000000000000000600052604160045260246000fd5b612c4282612847565b810181811067ffffffffffffffff82111715612c6157612c60612c0a565b5b80604052505050565b6000612c74612732565b9050612c808282612c39565b919050565b600067ffffffffffffffff821115612ca057612c9f612c0a565b5b612ca982612847565b9050602081019050919050565b82818337600083830152505050565b6000612cd8612cd384612c85565b612c6a565b905082815260208101848484011115612cf457612cf3612c05565b5b612cff848285612cb6565b509392505050565b600082601f830112612d1c57612d1b612c00565b5b8135612d2c848260208601612cc5565b91505092915050565b60008060408385031215612d4c57612d4b61273c565b5b600083013567ffffffffffffffff811115612d6a57612d69612741565b5b612d7685828601612d07565b9250506020612d87858286016128d4565b9150509250929050565b612d9a81612a6c565b82525050565b6000602082019050612db56000830184612d91565b92915050565b60a082016000820151612dd16000850182612a5d565b506020820151612de46020850182612a7e565b506040820151612df76040850182612a7e565b506060820151612e0a6060850182612a5d565b506080820151612e1d6080850182612a8d565b50505050565b600060a082019050612e386000830184612dbb565b92915050565b612e47816127cb565b8114612e5257600080fd5b50565b600081359050612e6481612e3e565b92915050565b60008060408385031215612e8157612e8061273c565b5b6000612e8f85828601612989565b9250506020612ea085828601612e55565b9150509250929050565b600067ffffffffffffffff821115612ec557612ec4612c0a565b5b612ece82612847565b9050602081019050919050565b6000612eee612ee984612eaa565b612c6a565b905082815260208101848484011115612f0a57612f09612c05565b5b612f15848285612cb6565b509392505050565b600082601f830112612f3257612f31612c00565b5b8135612f42848260208601612edb565b91505092915050565b60008060008060808587031215612f6557612f6461273c565b5b6000612f7387828801612989565b9450506020612f8487828801612989565b9350506040612f95878288016128d4565b925050606085013567ffffffffffffffff811115612fb657612fb5612741565b5b612fc287828801612f1d565b91505092959194509250565b60008060408385031215612fe557612fe461273c565b5b6000612ff385828601612989565b925050602061300485828601612989565b9150509250929050565b7f4e487b7100000000000000000000000000000000000000000000000000000000600052602260045260246000fd5b6000600282049050600182168061305557607f821691505b6020821081036130685761306761300e565b5b50919050565b7f4552433732313a20617070726f76616c20746f2063757272656e74206f776e6560008201527f7200000000000000000000000000000000000000000000000000000000000000602082015250565b60006130ca60218361280c565b91506130d58261306e565b604082019050919050565b600060208201905081810360008301526130f9816130bd565b9050919050565b7f4552433732313a20617070726f76652063616c6c6572206973206e6f7420746f60008201527f6b656e206f776e6572206e6f7220617070726f76656420666f7220616c6c0000602082015250565b600061315c603e8361280c565b915061316782613100565b604082019050919050565b6000602082019050818103600083015261318b8161314f565b9050919050565b7f4552433732313a2063616c6c6572206973206e6f7420746f6b656e206f776e6560008201527f72206e6f7220617070726f766564000000000000000000000000000000000000602082015250565b60006131ee602e8361280c565b91506131f982613192565b604082019050919050565b6000602082019050818103600083015261321d816131e1565b9050919050565b7f4e487b7100000000000000000000000000000000000000000000000000000000600052601160045260246000fd5b600061325e826128b3565b9150613269836128b3565b925082820190508082111561328157613280613224565b5b92915050565b6000613292826128b3565b91507fffffffffffffffffffffffffffffffffffffffffffffffffffffffffffffffff82036132c4576132c3613224565b5b600182019050919050565b7f4e487b7100000000000000000000000000000000000000000000000000000000600052603260045260246000fd5b7f4552433732313a20696e76616c696420746f6b656e2049440000000000000000600082015250565b600061333460188361280c565b915061333f826132fe565b602082019050919050565b6000602082019050818103600083015261336381613327565b9050919050565b7f4552433732313a2061646472657373207a65726f206973206e6f74206120766160008201527f6c6964206f776e65720000000000000000000000000000000000000000000000602082015250565b60006133c660298361280c565b91506133d18261336a565b604082019050919050565b600060208201905081810360008301526133f5816133b9565b9050919050565b7f506c65617365207375626d6974207468652061736b696e67207072696365206960008201527f6e206f7264657220746f20636f6d706c65746520746865207075726368617365602082015250565b600061345860408361280c565b9150613463826133fc565b604082019050919050565b600060208201905081810360008301526134878161344b565b9050919050565b7f4f6e6c79206f776e65722063616e20757064617465206c697374696e6720707260008201527f6963650000000000000000000000000000000000000000000000000000000000602082015250565b60006134ea60238361280c565b91506134f58261348e565b604082019050919050565b60006020820190508181036000830152613519816134dd565b9050919050565b600081905092915050565b600061353682612801565b6135408185613520565b935061355081856020860161281d565b80840191505092915050565b6000613568828561352b565b9150613574828461352b565b91508190509392505050565b7f4552433732313a207472616e736665722066726f6d20696e636f72726563742060008201527f6f776e6572000000000000000000000000000000000000000000000000000000602082015250565b60006135dc60258361280c565b91506135e782613580565b604082019050919050565b6000602082019050818103600083015261360b816135cf565b9050919050565b7f4552433732313a207472616e7366657220746f20746865207a65726f2061646460008201527f7265737300000000000000000000000000000000000000000000000000000000602082015250565b600061366e60248361280c565b915061367982613612565b604082019050919050565b6000602082019050818103600083015261369d81613661565b9050919050565b60006136af826128b3565b91506136ba836128b3565b92508282039050818111156136d2576136d1613224565b5b92915050565b7f45524337323155524953746f726167653a2055524920736574206f66206e6f6e60008201527f6578697374656e7420746f6b656e000000000000000000000000000000000000602082015250565b6000613734602e8361280c565b915061373f826136d8565b604082019050919050565b6000602082019050818103600083015261376381613727565b9050919050565b60008190508160005260206000209050919050565b60006020601f8301049050919050565b600082821b905092915050565b6000600883026137cc7fffffffffffffffffffffffffffffffffffffffffffffffffffffffffffffffff8261378f565b6137d6868361378f565b95508019841693508086168417925050509392505050565b6000819050919050565b600061381361380e613809846128b3565b6137ee565b6128b3565b9050919050565b6000819050919050565b61382d836137f8565b6138416138398261381a565b84845461379c565b825550505050565b600090565b613856613849565b613861818484613824565b505050565b5b818110156138855761387a60008261384e565b600181019050613867565b5050565b601f8211156138ca5761389b8161376a565b6138a48461377f565b810160208510156138b3578190505b6138c76138bf8561377f565b830182613866565b50505b505050565b600082821c905092915050565b60006138ed600019846008026138cf565b1980831691505092915050565b600061390683836138dc565b9150826002028217905092915050565b61391f82612801565b67ffffffffffffffff81111561393857613937612c0a565b5b613942825461303d565b61394d828285613889565b600060209050601f831160018114613980576000841561396e578287015190505b61397885826138fa565b8655506139e0565b601f19841661398e8661376a565b60005b828110156139b657848901518255600182019150602085019450602081019050613991565b868310156139d357848901516139cf601f8916826138dc565b8355505b6001600288020188555050505b505050505050565b7f486f706566756c6c792073656e64696e672074686520636f727265637420707260008201527f6963650000000000000000000000000000000000000000000000000000000000602082015250565b6000613a4460238361280c565b9150613a4f826139e8565b604082019050919050565b60006020820190508181036000830152613a7381613a37565b9050919050565b7f4d616b652073757265207468652070726963652069736e2774206e656761746960008201527f7665000000000000000000000000000000000000000000000000000000000000602082015250565b6000613ad660228361280c565b9150613ae182613a7a565b604082019050919050565b60006020820190508181036000830152613b0581613ac9565b9050919050565b7f4552433732313a20617070726f766520746f2063616c6c657200000000000000600082015250565b6000613b4260198361280c565b9150613b4d82613b0c565b602082019050919050565b60006020820190508181036000830152613b7181613b35565b9050919050565b7f4552433732313a207472616e7366657220746f206e6f6e20455243373231526560008201527f63656976657220696d706c656d656e7465720000000000000000000000000000602082015250565b6000613bd460328361280c565b9150613bdf82613b78565b604082019050919050565b60006020820190508181036000830152613c0381613bc7565b9050919050565b600081519050919050565b600082825260208201905092915050565b6000613c3182613c0a565b613c3b8185613c15565b9350613c4b81856020860161281d565b613c5481612847565b840191505092915050565b6000608082019050613c746000830187612948565b613c816020830186612948565b613c8e6040830185612ba9565b8181036060830152613ca08184613c26565b905095945050505050565b600081519050613cba81612772565b92915050565b600060208284031215613cd657613cd561273c565b5b6000613ce484828501613cab565b91505092915050565b7f4e487b7100000000000000000000000000000000000000000000000000000000600052601260045260246000fd5b6000613d27826128b3565b9150613d32836128b3565b925082613d4257613d41613ced565b5b828204905092915050565b6000613d58826128b3565b9150613d63836128b3565b925082613d7357613d72613ced565b5b828206905092915050565b7f4552433732313a206d696e7420746f20746865207a65726f2061646472657373600082015250565b6000613db460208361280c565b9150613dbf82613d7e565b602082019050919050565b60006020820190508181036000830152613de381613da7565b9050919050565b7f4552433732313a20746f6b656e20616c7265616479206d696e74656400000000600082015250565b6000613e20601c8361280c565b9150613e2b82613dea565b602082019050919050565b60006020820190508181036000830152613e4f81613e13565b905091905056fea2646970667358221220ec8823b4cf170e2a1e367d484e8385c665caafc07ee8c1158d0c77b85f6dafc464736f6c63430008110033",
  "linkReferences": {},
  "deployedLinkReferences": {}
}